:100000000C9440000C945D000C945D000C945D0019
:100010000C945D000C945D000C945D000C945D00EC
:100020000C945D000C945D000C945D000C94D20067
:100030000C945D000C945D000C945D000C945D00CC
:100040000C945D000C945D000C945D000C945D00BC
:100050000C945D000C945D000C945D000C945D00AC
:100060000C945D000C945D00550352034F034C0348
:1000700049034603430340033D033A033703340374
:1000800011241FBECFEFD4E0DEBFCDBF21E0A0E042
:10009000B1E001C01D92A532B207E1F711E0A0E086
:1000A000B1E0E0E1F7E002C005900D92A030B107A9
:1000B000D9F70E945F000C9486030C940000CF9344
:1000C000DF930E9461030E949B00C3E0D0E081E3C4
:1000D00091E00E94970288E790E00E940C0321972C
:1000E000B1F780E090E0DF91CF9108958091C0005A
:1000F00087FFFCCF8091C60008958091C00087FFE4
:1001000003C08091C600F9CF0895F894909324011C
:100110008093230110922201789408950E94850013
:10012000809122018823E1F3089589B1829581703D
:1001300091E089270895CF93DF930E949500811164
:1001400005C084E690E00E948E00F7CFC0E0D0E0CA
:100150000E949500882339F084E690E00E948E008A
:10016000CC59DF4FF5CFCE01DF91CF910895882391
:1001700011F05E9808955E9A0895882311F05D98B5
:1001800008955D9A0895CF93DF931F92CDB7DEB7A0
:1001900069830E94B7006981862F0F90DF91CF910C
:1001A0000C94BD001F920F920FB60F9211242F9343
:1001B0003F938F939F938091230190912401892BEA
:1001C00049F080912301909124010197909324019B
:1001D00080932301209123013091240181E0232B7E
:1001E00009F080E08093220180910501882329F0A5
:1001F0008091050181508093050180910001882341
:1002000029F08091000181508093000180911E01AE
:1002100090911F01019690931F0180931E01809180
:100220001E0190911F01883E934098F080911E011D
:1002300090911F01885E934090931F0180931E014F
:10024000809120019091210101969093210180934A
:1002500020019F918F913F912F910F900FBE0F9092
:100260001F901895F89480E184B984B18F6084B9A7
:100270008FEC85B917B88FEF88B986EE8AB98DE70C
:100280008BB9109280008CE08093810087E490E02D
:10029000909389008093880082E080936F0083E1CF
:1002A00090E09093C5008093C40088E18093C100E2
:1002B00086E08093C200789408951D9908951D9951
:1002C0000CC05F9884EF91E00E948E005F9A84E6F4
:1002D00090E00E948E005F98F2CF8CEA9DE00C9433
:1002E0008E009091C00095FFFCCF8093C6000895CA
:1002F0001F93CF93DF9380910501811123C00E944A
:100300007D0085E90E94710185E00E94710187E00E
:100310000E94710181E10E94710182E10E947101DC
:1003200084E00E94710184E20E947101C6E0D1E084
:100330001C2F1E5E0E94760089931C13FBCF84E65F
:1003400080930501DF91CF911F9108950E9478015C
:1003500090910601937081E009F480E008951F9365
:10036000CF93DF9380910001811152C00E947D00E4
:1003700085E90E94710182E00E94710183E10E947F
:10038000710184E10E947101C1E0D1E01C2F1C5F6A
:100390000E94760089931C13FBCF8091010190E0AD
:1003A000982F882720910201822B9C01205E314BDF
:1003B00021343C4950F420911C0130911D01820FE1
:1003C000931F90931D0180931C018091030190E085
:1003D000982F882720910401822B9C01205E314BAD
:1003E00021343C4950F420911A0130911B01820FB5
:1003F000931F90931B0180931A0180911801909193
:10040000190101969093190180931801109200012F
:10041000DF91CF911F910895F89410920001789484
:100420000E94AF0110921D0110921C0110921B013D
:1004300010921A0110921901109218010895CF9389
:10044000DF93C0E085E90E94710182E00E947101A2
:1004500089E20E9471018AE20E947101D4E00E9447
:100460007600C82BD150D9F7C111ECCFDF91CF91D5
:100470000895FF920F931F93CF93DF931F92CDB7F1
:10048000DEB7182F411102C000E001C002E02111C7
:1004900002C0F12C02C088E0F82E8BE869830E942C
:1004A00071018F2D802B0E947101812F0E9471019B
:1004B0006981862F0F90DF91CF911F910F91FF904F
:1004C0000C9471011F93CF93DF9300D01F92CDB78F
:1004D000DEB7182F89E86B837A8399830E947101B4
:1004E0009981892F0E947101812F0E9471017A8167
:1004F000872F0E9471016B81862F0F900F900F90B4
:10050000DF91CF911F910C94710160E070E880E061
:1005100090E00C94620260E070E888E39FEF0E9434
:1005200062028AEF90E00E948E000C9485020F9385
:100530001F93CF93DF93EC0197FF03C008E31FEFF6
:1005400002C008EC10E00E940C0260E070E8C801F4
:100550000E9462021C161D0654F40E94AF01809195
:100560001C0190911D018C179D0764F013C0D7FFEB
:1005700009C00E94AF0180911C0190911D01C81714
:10058000D90744F40E94A601882321F30E948B021C
:1005900080E003C00E94850281E0DF91CF911F912E
:1005A0000F9108951F93CF93DF931F92CDB7DEB7BE
:1005B000182F8DE999830E9471019981892F0E94DA
:1005C0007101812F0E9471010E9485020F90DF91BD
:1005D000CF911F910C941F020F931F93CF93DF9322
:1005E00000D000D0CDB7DEB78A016B837C838983CE
:1005F0009A830E940C026B817C8189819A810E947E
:100600006202C8010F900F900F900F90DF91CF9171
:100610001F910F910C94D202AC0197FF03C06FEFB2
:100620007FEF02C061E070E088EC90E00C94EC0297
:10063000CF93C82F81E80E9471018091C00080642F
:100640008093C0008C2F0E9471018091C00086FFB2
:10065000FCCFF8948C2F90E08C30910560F5FC0174
:10066000EC5CFF4F0C94800389E090E020C083E1B4
:1006700090E01DC08DE190E01AC087E290E017C0C5
:100680008BE390E014C08FE490E011C087E790E026
:100690000EC08FEE90E00BC08FED91E008C08FEBA5
:1006A00093E005C08FE797E002C08FEF9EE0909344
:1006B000C5008093C400789486E990E0CF910C94B3
:1006C0008E000E9432018BB180668BB90E945D0161
:1006D00080E80E94710189E00E94180382E80E946C
:1006E000710183E80E9471010E94850220E040E0D0
:1006F0006FEF81E00E94390260E080E00C94C3005B
:10070000EE0FFF1F0590F491E02D0994F894FFCFB0
:00000001FF
